{
  "_format": "hh-sol-artifact-1",
  "contractName": "USDCPaymentHub",
  "sourceName": "contracts/USDCPaymentHub.sol",
  "abi": [
    {
      "inputs": [
        {
          "internalType": "address",
          "name": "_usdc",
          "type": "address"
        },
        {
          "internalType": "address",
          "name": "_platformFeeAccount",
          "type": "address"
        },
        {
          "internalType": "uint16",
          "name": "_platformFeeBps",
          "type": "uint16"
        }
      ],
      "stateMutability": "nonpayable",
      "type": "constructor"
    },
    {
      "inputs": [],
      "name": "AccessControlBadConfirmation",
      "type": "error"
    },
    {
      "inputs": [
        {
          "internalType": "address",
          "name": "account",
          "type": "address"
        },
        {
          "internalType": "bytes32",
          "name": "neededRole",
          "type": "bytes32"
        }
      ],
      "name": "AccessControlUnauthorizedAccount",
      "type": "error"
    },
    {
      "inputs": [],
      "name": "AlreadyRefunded",
      "type": "error"
    },
    {
      "inputs": [],
      "name": "EnforcedPause",
      "type": "error"
    },
    {
      "inputs": [],
      "name": "ExpectedPause",
      "type": "error"
    },
    {
      "inputs": [],
      "name": "FeeTooHigh",
      "type": "error"
    },
    {
      "inputs": [],
      "name": "InvalidAmount",
      "type": "error"
    },
    {
      "inputs": [],
      "name": "NotMerchant",
      "type": "error"
    },
    {
      "inputs": [],
      "name": "NotPaymentConsumer",
      "type": "error"
    },
    {
      "inputs": [],
      "name": "NotPaymentMerchant",
      "type": "error"
    },
    {
      "inputs": [],
      "name": "PaymentAlreadyProcessed",
      "type": "error"
    },
    {
      "inputs": [],
      "name": "PaymentNotProcessed",
      "type": "error"
    },
    {
      "inputs": [],
      "name": "ReentrancyGuardReentrantCall",
      "type": "error"
    },
    {
      "inputs": [],
      "name": "RefundAmountTooHigh",
      "type": "error"
    },
    {
      "inputs": [],
      "name": "RefundNotRequested",
      "type": "error"
    },
    {
      "inputs": [
        {
          "internalType": "address",
          "name": "token",
          "type": "address"
        }
      ],
      "name": "SafeERC20FailedOperation",
      "type": "error"
    },
    {
      "inputs": [],
      "name": "ZeroAddress",
      "type": "error"
    },
    {
      "anonymous": false,
      "inputs": [
        {
          "indexed": true,
          "internalType": "address",
          "name": "merchant",
          "type": "address"
        }
      ],
      "name": "MerchantRegistered",
      "type": "event"
    },
    {
      "anonymous": false,
      "inputs": [
        {
          "indexed": true,
          "internalType": "address",
          "name": "merchant",
          "type": "address"
        }
      ],
      "name": "MerchantRevoked",
      "type": "event"
    },
    {
      "anonymous": false,
      "inputs": [
        {
          "indexed": false,
          "internalType": "address",
          "name": "account",
          "type": "address"
        }
      ],
      "name": "Paused",
      "type": "event"
    },
    {
      "anonymous": false,
      "inputs": [
        {
          "indexed": true,
          "internalType": "bytes32",
          "name": "paymentId",
          "type": "bytes32"
        },
        {
          "indexed": true,
          "internalType": "address",
          "name": "consumer",
          "type": "address"
        },
        {
          "indexed": true,
          "internalType": "address",
          "name": "merchant",
          "type": "address"
        },
        {
          "indexed": false,
          "internalType": "uint256",
          "name": "grossAmount",
          "type": "uint256"
        },
        {
          "indexed": false,
          "internalType": "uint256",
          "name": "fee",
          "type": "uint256"
        },
        {
          "indexed": false,
          "internalType": "uint256",
          "name": "merchantAmount",
          "type": "uint256"
        }
      ],
      "name": "PaymentProcessed",
      "type": "event"
    },
    {
      "anonymous": false,
      "inputs": [
        {
          "indexed": true,
          "internalType": "address",
          "name": "oldAccount",
          "type": "address"
        },
        {
          "indexed": true,
          "internalType": "address",
          "name": "newAccount",
          "type": "address"
        }
      ],
      "name": "PlatformFeeAccountUpdated",
      "type": "event"
    },
    {
      "anonymous": false,
      "inputs": [
        {
          "indexed": false,
          "internalType": "uint16",
          "name": "oldBps",
          "type": "uint16"
        },
        {
          "indexed": false,
          "internalType": "uint16",
          "name": "newBps",
          "type": "uint16"
        }
      ],
      "name": "PlatformFeeUpdated",
      "type": "event"
    },
    {
      "anonymous": false,
      "inputs": [
        {
          "indexed": true,
          "internalType": "bytes32",
          "name": "paymentId",
          "type": "bytes32"
        },
        {
          "indexed": true,
          "internalType": "address",
          "name": "initiatedBy",
          "type": "address"
        },
        {
          "indexed": true,
          "internalType": "address",
          "name": "consumer",
          "type": "address"
        },
        {
          "indexed": false,
          "internalType": "uint256",
          "name": "amount",
          "type": "uint256"
        }
      ],
      "name": "RefundIssued",
      "type": "event"
    },
    {
      "anonymous": false,
      "inputs": [
        {
          "indexed": true,
          "internalType": "bytes32",
          "name": "paymentId",
          "type": "bytes32"
        },
        {
          "indexed": true,
          "internalType": "address",
          "name": "consumer",
          "type": "address"
        },
        {
          "indexed": false,
          "internalType": "string",
          "name": "reason",
          "type": "string"
        }
      ],
      "name": "RefundRequested",
      "type": "event"
    },
    {
      "anonymous": false,
      "inputs": [
        {
          "indexed": true,
          "internalType": "bytes32",
          "name": "role",
          "type": "bytes32"
        },
        {
          "indexed": true,
          "internalType": "bytes32",
          "name": "previousAdminRole",
          "type": "bytes32"
        },
        {
          "indexed": true,
          "internalType": "bytes32",
          "name": "newAdminRole",
          "type": "bytes32"
        }
      ],
      "name": "RoleAdminChanged",
      "type": "event"
    },
    {
      "anonymous": false,
      "inputs": [
        {
          "indexed": true,
          "internalType": "bytes32",
          "name": "role",
          "type": "bytes32"
        },
        {
          "indexed": true,
          "internalType": "address",
          "name": "account",
          "type": "address"
        },
        {
          "indexed": true,
          "internalType": "address",
          "name": "sender",
          "type": "address"
        }
      ],
      "name": "RoleGranted",
      "type": "event"
    },
    {
      "anonymous": false,
      "inputs": [
        {
          "indexed": true,
          "internalType": "bytes32",
          "name": "role",
          "type": "bytes32"
        },
        {
          "indexed": true,
          "internalType": "address",
          "name": "account",
          "type": "address"
        },
        {
          "indexed": true,
          "internalType": "address",
          "name": "sender",
          "type": "address"
        }
      ],
      "name": "RoleRevoked",
      "type": "event"
    },
    {
      "anonymous": false,
      "inputs": [
        {
          "indexed": false,
          "internalType": "address",
          "name": "account",
          "type": "address"
        }
      ],
      "name": "Unpaused",
      "type": "event"
    },
    {
      "inputs": [],
      "name": "ADMIN_ROLE",
      "outputs": [
        {
          "internalType": "bytes32",
          "name": "",
          "type": "bytes32"
        }
      ],
      "stateMutability": "view",
      "type": "function"
    },
    {
      "inputs": [],
      "name": "DEFAULT_ADMIN_ROLE",
      "outputs": [
        {
          "internalType": "bytes32",
          "name": "",
          "type": "bytes32"
        }
      ],
      "stateMutability": "view",
      "type": "function"
    },
    {
      "inputs": [],
      "name": "MERCHANT_ROLE",
      "outputs": [
        {
          "internalType": "bytes32",
          "name": "",
          "type": "bytes32"
        }
      ],
      "stateMutability": "view",
      "type": "function"
    },
    {
      "inputs": [
        {
          "internalType": "bytes32",
          "name": "paymentId",
          "type": "bytes32"
        },
        {
          "internalType": "uint256",
          "name": "amount",
          "type": "uint256"
        }
      ],
      "name": "adminRefund",
      "outputs": [],
      "stateMutability": "nonpayable",
      "type": "function"
    },
    {
      "inputs": [
        {
          "internalType": "bytes32",
          "name": "paymentId",
          "type": "bytes32"
        },
        {
          "internalType": "address",
          "name": "merchant",
          "type": "address"
        },
        {
          "internalType": "uint256",
          "name": "grossAmount",
          "type": "uint256"
        }
      ],
      "name": "checkout",
      "outputs": [],
      "stateMutability": "nonpayable",
      "type": "function"
    },
    {
      "inputs": [
        {
          "internalType": "uint256",
          "name": "grossAmount",
          "type": "uint256"
        }
      ],
      "name": "computeFeeAndNet",
      "outputs": [
        {
          "internalType": "uint256",
          "name": "fee",
          "type": "uint256"
        },
        {
          "internalType": "uint256",
          "name": "net",
          "type": "uint256"
        }
      ],
      "stateMutability": "view",
      "type": "function"
    },
    {
      "inputs": [
        {
          "internalType": "bytes32",
          "name": "paymentId",
          "type": "bytes32"
        }
      ],
      "name": "getPaymentInfo",
      "outputs": [
        {
          "internalType": "address",
          "name": "consumer",
          "type": "address"
        },
        {
          "internalType": "address",
          "name": "merchant",
          "type": "address"
        },
        {
          "internalType": "uint256",
          "name": "grossAmount",
          "type": "uint256"
        },
        {
          "internalType": "uint256",
          "name": "merchantAmount",
          "type": "uint256"
        },
        {
          "internalType": "uint256",
          "name": "refundedAmount",
          "type": "uint256"
        },
        {
          "internalType": "uint32",
          "name": "timestamp",
          "type": "uint32"
        },
        {
          "internalType": "bool",
          "name": "processed",
          "type": "bool"
        },
        {
          "internalType": "bool",
          "name": "refunded",
          "type": "bool"
        }
      ],
      "stateMutability": "view",
      "type": "function"
    },
    {
      "inputs": [
        {
          "internalType": "bytes32",
          "name": "role",
          "type": "bytes32"
        }
      ],
      "name": "getRoleAdmin",
      "outputs": [
        {
          "internalType": "bytes32",
          "name": "",
          "type": "bytes32"
        }
      ],
      "stateMutability": "view",
      "type": "function"
    },
    {
      "inputs": [
        {
          "internalType": "bytes32",
          "name": "role",
          "type": "bytes32"
        },
        {
          "internalType": "address",
          "name": "account",
          "type": "address"
        }
      ],
      "name": "grantRole",
      "outputs": [],
      "stateMutability": "nonpayable",
      "type": "function"
    },
    {
      "inputs": [
        {
          "internalType": "bytes32",
          "name": "role",
          "type": "bytes32"
        },
        {
          "internalType": "address",
          "name": "account",
          "type": "address"
        }
      ],
      "name": "hasRole",
      "outputs": [
        {
          "internalType": "bool",
          "name": "",
          "type": "bool"
        }
      ],
      "stateMutability": "view",
      "type": "function"
    },
    {
      "inputs": [
        {
          "internalType": "bytes32",
          "name": "paymentId",
          "type": "bytes32"
        }
      ],
      "name": "isProcessed",
      "outputs": [
        {
          "internalType": "bool",
          "name": "",
          "type": "bool"
        }
      ],
      "stateMutability": "view",
      "type": "function"
    },
    {
      "inputs": [
        {
          "internalType": "bytes32",
          "name": "paymentId",
          "type": "bytes32"
        }
      ],
      "name": "isRefundRequested",
      "outputs": [
        {
          "internalType": "bool",
          "name": "",
          "type": "bool"
        }
      ],
      "stateMutability": "view",
      "type": "function"
    },
    {
      "inputs": [
        {
          "internalType": "bytes32",
          "name": "paymentId",
          "type": "bytes32"
        }
      ],
      "name": "isRefunded",
      "outputs": [
        {
          "internalType": "bool",
          "name": "",
          "type": "bool"
        }
      ],
      "stateMutability": "view",
      "type": "function"
    },
    {
      "inputs": [
        {
          "internalType": "bytes32",
          "name": "paymentId",
          "type": "bytes32"
        },
        {
          "internalType": "uint256",
          "name": "amount",
          "type": "uint256"
        }
      ],
      "name": "merchantRefund",
      "outputs": [],
      "stateMutability": "nonpayable",
      "type": "function"
    },
    {
      "inputs": [],
      "name": "pause",
      "outputs": [],
      "stateMutability": "nonpayable",
      "type": "function"
    },
    {
      "inputs": [],
      "name": "paused",
      "outputs": [
        {
          "internalType": "bool",
          "name": "",
          "type": "bool"
        }
      ],
      "stateMutability": "view",
      "type": "function"
    },
    {
      "inputs": [
        {
          "internalType": "bytes32",
          "name": "",
          "type": "bytes32"
        }
      ],
      "name": "payments",
      "outputs": [
        {
          "internalType": "address",
          "name": "consumer",
          "type": "address"
        },
        {
          "internalType": "address",
          "name": "merchant",
          "type": "address"
        },
        {
          "internalType": "uint128",
          "name": "grossAmount",
          "type": "uint128"
        },
        {
          "internalType": "uint128",
          "name": "merchantAmount",
          "type": "uint128"
        },
        {
          "internalType": "uint128",
          "name": "refundedAmount",
          "type": "uint128"
        },
        {
          "internalType": "uint32",
          "name": "timestamp",
          "type": "uint32"
        },
        {
          "internalType": "bool",
          "name": "processed",
          "type": "bool"
        },
        {
          "internalType": "bool",
          "name": "refunded",
          "type": "bool"
        }
      ],
      "stateMutability": "view",
      "type": "function"
    },
    {
      "inputs": [],
      "name": "platformFeeAccount",
      "outputs": [
        {
          "internalType": "address",
          "name": "",
          "type": "address"
        }
      ],
      "stateMutability": "view",
      "type": "function"
    },
    {
      "inputs": [],
      "name": "platformFeeBps",
      "outputs": [
        {
          "internalType": "uint16",
          "name": "",
          "type": "uint16"
        }
      ],
      "stateMutability": "view",
      "type": "function"
    },
    {
      "inputs": [
        {
          "internalType": "bytes32",
          "name": "",
          "type": "bytes32"
        }
      ],
      "name": "refundRequested",
      "outputs": [
        {
          "internalType": "bool",
          "name": "",
          "type": "bool"
        }
      ],
      "stateMutability": "view",
      "type": "function"
    },
    {
      "inputs": [
        {
          "internalType": "address",
          "name": "merchant",
          "type": "address"
        }
      ],
      "name": "registerMerchant",
      "outputs": [],
      "stateMutability": "nonpayable",
      "type": "function"
    },
    {
      "inputs": [
        {
          "internalType": "bytes32",
          "name": "role",
          "type": "bytes32"
        },
        {
          "internalType": "address",
          "name": "callerConfirmation",
          "type": "address"
        }
      ],
      "name": "renounceRole",
      "outputs": [],
      "stateMutability": "nonpayable",
      "type": "function"
    },
    {
      "inputs": [
        {
          "internalType": "bytes32",
          "name": "paymentId",
          "type": "bytes32"
        },
        {
          "internalType": "string",
          "name": "reason",
          "type": "string"
        }
      ],
      "name": "requestRefund",
      "outputs": [],
      "stateMutability": "nonpayable",
      "type": "function"
    },
    {
      "inputs": [
        {
          "internalType": "address",
          "name": "merchant",
          "type": "address"
        }
      ],
      "name": "revokeMerchant",
      "outputs": [],
      "stateMutability": "nonpayable",
      "type": "function"
    },
    {
      "inputs": [
        {
          "internalType": "bytes32",
          "name": "role",
          "type": "bytes32"
        },
        {
          "internalType": "address",
          "name": "account",
          "type": "address"
        }
      ],
      "name": "revokeRole",
      "outputs": [],
      "stateMutability": "nonpayable",
      "type": "function"
    },
    {
      "inputs": [
        {
          "internalType": "uint16",
          "name": "newBps",
          "type": "uint16"
        }
      ],
      "name": "setPlatformFee",
      "outputs": [],
      "stateMutability": "nonpayable",
      "type": "function"
    },
    {
      "inputs": [
        {
          "internalType": "address",
          "name": "newAccount",
          "type": "address"
        }
      ],
      "name": "setPlatformFeeAccount",
      "outputs": [],
      "stateMutability": "nonpayable",
      "type": "function"
    },
    {
      "inputs": [
        {
          "internalType": "bytes4",
          "name": "interfaceId",
          "type": "bytes4"
        }
      ],
      "name": "supportsInterface",
      "outputs": [
        {
          "internalType": "bool",
          "name": "",
          "type": "bool"
        }
      ],
      "stateMutability": "view",
      "type": "function"
    },
    {
      "inputs": [],
      "name": "unpause",
      "outputs": [],
      "stateMutability": "nonpayable",
      "type": "function"
    },
    {
      "inputs": [],
      "name": "usdc",
      "outputs": [
        {
          "internalType": "contract IERC20",
          "name": "",
          "type": "address"
        }
      ],
      "stateMutability": "view",
      "type": "function"
    }
  ],
  "bytecode": "0x60a06040523480156200001157600080fd5b5060405162001a0d38038062001a0d8339810160408190526200003491620001e1565b60016002556001600160a01b03831615806200005757506001600160a01b038216155b15620000765760405163d92e233d60e01b815260040160405180910390fd5b6127108161ffff1611156200009e5760405163cd4e616760e01b815260040160405180910390fd5b6001600160a01b03838116608052600380549184166001600160b01b031990921691909117600160a01b61ffff841602179055620000de60003362000115565b506200010b7fa49807205ce4d355092ef5a8a18f56e8913cf4a201fbe287825b095693c217753362000115565b5050505062000235565b6000828152602081815260408083206001600160a01b038516845290915281205460ff16620001ba576000838152602081815260408083206001600160a01b03861684529091529020805460ff19166001179055620001713390565b6001600160a01b0316826001600160a01b0316847f2f8788117e7eff1d82e926ec794901d17c78024a50270940304540a733656f0d60405160405180910390a4506001620001be565b5060005b92915050565b80516001600160a01b0381168114620001dc57600080fd5b919050565b600080600060608486031215620001f757600080fd5b6200020284620001c4565b92506200021260208501620001c4565b9150604084015161ffff811681146200022a57600080fd5b809150509250925092565b6080516117a06200026d600039600081816103de0152818161083c0152818161088001528181610db801526110de01526117a06000f3fe608060405234801561001057600080fd5b50600436106101da5760003560e01c80635ccf91bc116101045780638af2c048116100a2578063b177568111610071578063b1775681146105f7578063b3d358391461061a578063d547741f1461062f578063dbd19fce1461064257600080fd5b80638af2c048146104fc57806391d148541461050f578063a217fddf14610522578063a75e9b191461052a57600080fd5b806375b238fc116100de57806375b238fc146104b95780637bd9060f146104ce578063819a701c146104e15780638456cb59146104f457600080fd5b80635ccf91bc146104515780636d892f9e146104645780636e1369111461048c57600080fd5b80632f3a5f961161017c5780633f4ba83a1161014b5780633f4ba83a14610418578063584ba2f1146104205780635c975abb146104335780635cbc742c1461043e57600080fd5b80632f3a5f96146103a057806336568abe146103b3578063388d9e5a146103c65780633e413bee146103d957600080fd5b806311c16896116101b857806311c168961461030557806322dcd13e14610332578063248a9ca31461035a5780632f2ff15d1461038b57600080fd5b806301bb2fc1146101df57806301ffc9a7146102175780630716326d1461022a575b600080fd5b6102026101ed3660046114e2565b60009081526005602052604090205460ff1690565b60405190151581526020015b60405180910390f35b6102026102253660046114fb565b610655565b6102a66102383660046114e2565b60046020526000908152604090208054600182015460028301546003909301546001600160a01b039283169392909116916001600160801b0380821692600160801b9283900482169291811691810463ffffffff1690600160a01b810460ff90811691600160a81b90041688565b604080516001600160a01b03998a1681529890971660208901526001600160801b039586169688019690965292841660608701529216608085015263ffffffff90911660a0840152151560c0830152151560e08201526101000161020e565b6102026103133660046114e2565b600090815260046020526040902060030154600160a01b900460ff1690565b60035461034790600160a01b900461ffff1681565b60405161ffff909116815260200161020e565b61037d6103683660046114e2565b60009081526020819052604090206001015490565b60405190815260200161020e565b61039e610399366004611548565b61068c565b005b61039e6103ae366004611574565b6106b7565b61039e6103c1366004611548565b61090e565b61039e6103d43660046115a9565b610941565b6104007f000000000000000000000000000000000000000000000000000000000000000081565b6040516001600160a01b03909116815260200161020e565b61039e6109d3565b61039e61042e3660046115a9565b6109f6565b60015460ff16610202565b61039e61044c3660046115c4565b610a85565b61039e61045f3660046115e8565b610b2a565b6104776104723660046114e2565b610c18565b6040805192835260208301919091520161020e565b61020261049a3660046114e2565b600090815260046020526040902060030154600160a81b900460ff1690565b61037d60008051602061172b83398151915281565b61039e6104dc366004611664565b610c56565b61039e6104ef3660046115a9565b610eb4565b61039e610f43565b600354610400906001600160a01b031681565b61020261051d366004611548565b610f63565b61037d600081565b6105a76105383660046114e2565b60009081526004602052604090208054600182015460028301546003909301546001600160a01b039283169492909116926001600160801b0380821693600160801b9283900482169391821692820463ffffffff1691600160a01b810460ff90811692600160a81b9092041690565b604080516001600160a01b03998a168152989097166020890152958701949094526060860192909252608085015263ffffffff1660a0840152151560c0830152151560e08201526101000161020e565b6102026106053660046114e2565b60056020526000908152604090205460ff1681565b61037d60008051602061174b83398151915281565b61039e61063d366004611548565b610f8c565b61039e610650366004611664565b610fb1565b60006001600160e01b03198216637965db0b60e01b148061068657506301ffc9a760e01b6001600160e01b03198316145b92915050565b6000828152602081905260409020600101546106a7816111d4565b6106b183836111de565b50505050565b6106bf611270565b6106c7611296565b6001600160a01b0382166106ee5760405163d92e233d60e01b815260040160405180910390fd5b8060000361070f5760405163162908e360e11b815260040160405180910390fd5b61072760008051602061174b83398151915283610f63565b61074457604051630ed9017d60e21b815260040160405180910390fd5b60008381526004602052604090206003810154600160a01b900460ff161561077f5760405163424e8d7160e01b815260040160405180910390fd5b600354600160a01b900461ffff16600061271061079c838661169c565b6107a691906116b3565b905060006107b482866116d5565b8454336001600160a01b0319918216811787556001870180549092166001600160a01b038a8116919091179092556001600160801b03888116600160801b9185168202176002890155600388018054600160a01b64ffffffffff60801b199091164263ffffffff90811690940260ff60a01b1916171760ff60a81b19169055929350610869927f000000000000000000000000000000000000000000000000000000000000000090921691899085906112be16565b81156108ab576003546108ab906001600160a01b037f0000000000000000000000000000000000000000000000000000000000000000811691339116856112be565b60408051868152602081018490529081018290526001600160a01b03871690339089907f743791ed120d099b4c527e3bcef5a2e69c738c483ede167d034fb7a031afa9449060600160405180910390a4505050506109096001600255565b505050565b6001600160a01b03811633146109375760405163334bd91960e11b815260040160405180910390fd5b6109098282611318565b60008051602061172b833981519152610959816111d4565b6001600160a01b0382166109805760405163d92e233d60e01b815260040160405180910390fd5b600380546001600160a01b038481166001600160a01b0319831681179093556040519116919082907f9d114476b46f34608a8e3da816ac186f26d4be10aacee45be45db99abb2c854090600090a3505050565b60008051602061172b8339815191526109eb816111d4565b6109f3611383565b50565b60008051602061172b833981519152610a0e816111d4565b6001600160a01b038216610a355760405163d92e233d60e01b815260040160405180910390fd5b610a4d60008051602061174b8339815191528361068c565b6040516001600160a01b038316907f19550584307f4a89125eb78409c1879e09efac4adc7fdeca99ad253057c5085e90600090a25050565b60008051602061172b833981519152610a9d816111d4565b6127108261ffff161115610ac45760405163cd4e616760e01b815260040160405180910390fd5b6003805461ffff848116600160a01b81810261ffff60a01b1985161790945560408051949093049091168084526020840191909152917f84e4fe32bf74c4011a7e1fde79c63acdffaf92a0112cde153e7b0abee665bc6b910160405180910390a1505050565b60008381526004602052604090206003810154600160a01b900460ff16610b6457604051630706d43760e31b815260040160405180910390fd5b80546001600160a01b03163314610b8e5760405163d29306d160e01b815260040160405180910390fd5b6003810154600160a81b900460ff1615610bbb5760405163542f378d60e11b815260040160405180910390fd5b60008481526005602052604090819020805460ff1916600117905551339085907f11294e74729c6d67311c2bd53bcb2f3079e8095c176def066051e789f41554c990610c0a90879087906116e8565b60405180910390a350505050565b600354600090819061271090610c3990600160a01b900461ffff168561169c565b610c4391906116b3565b9150610c4f82846116d5565b9050915091565b610c5e611296565b60008051602061174b833981519152610c76816111d4565b60008381526004602052604090206003810154600160a01b900460ff16610cb057604051630706d43760e31b815260040160405180910390fd5b6003810154600160a81b900460ff1615610cdd5760405163542f378d60e11b815260040160405180910390fd5b60008481526005602052604090205460ff16610d0c576040516337f8fb2560e11b815260040160405180910390fd5b60018101546001600160a01b03163314610d39576040516375959d0f60e11b815260040160405180910390fd5b82600003610d5a5760405163162908e360e11b815260040160405180910390fd5b60038101546002820154600091610d85916001600160801b0391821691600160801b909104166116d5565b905080841115610da85760405163764cc82760e01b815260040160405180910390fd5b8154610de3906001600160a01b037f0000000000000000000000000000000000000000000000000000000000000000811691339116876112be565b6003820154610dfc9085906001600160801b0316611717565b6003830180546001600160801b0319166001600160801b039283169081179091556002840154600160801b900490911611610e5d5760038201805460ff60a81b1916600160a81b1790556000858152600560205260409020805460ff191690555b81546040518581526001600160a01b0390911690339087907f3950574a207e67e1018824bc0637c21b2a6777df9460813d666b4198cbe2365d906020015b60405180910390a4505050610eb06001600255565b5050565b60008051602061172b833981519152610ecc816111d4565b6001600160a01b038216610ef35760405163d92e233d60e01b815260040160405180910390fd5b610f0b60008051602061174b83398151915283610f8c565b6040516001600160a01b038316907f1bc5b06af60efc2e1bf6905dcc4fa4bb9153c3a9b61a0aa9568c573cbe01076b90600090a25050565b60008051602061172b833981519152610f5b816111d4565b6109f36113d5565b6000918252602082815260408084206001600160a01b0393909316845291905290205460ff1690565b600082815260208190526040902060010154610fa7816111d4565b6106b18383611318565b610fb9611296565b60008051602061172b833981519152610fd1816111d4565b60008381526004602052604090206003810154600160a01b900460ff1661100b57604051630706d43760e31b815260040160405180910390fd5b6003810154600160a81b900460ff16156110385760405163542f378d60e11b815260040160405180910390fd5b60008481526005602052604090205460ff16611067576040516337f8fb2560e11b815260040160405180910390fd5b826000036110885760405163162908e360e11b815260040160405180910390fd5b600381015460028201546000916110ab916001600160801b0391821691166116d5565b9050808411156110ce5760405163764cc82760e01b815260040160405180910390fd5b8154611109906001600160a01b037f0000000000000000000000000000000000000000000000000000000000000000811691339116876112be565b60038201546111229085906001600160801b0316611717565b6003830180546001600160801b0319166001600160801b039283169081179091556002840154909116116111665760038201805460ff60a81b1916600160a81b1790555b6003820154600160a81b900460ff1615610e5d576000858152600560205260409020805460ff1916905581546040516001600160a01b0390911690339087907f3950574a207e67e1018824bc0637c21b2a6777df9460813d666b4198cbe2365d90610e9b9089815260200190565b6109f38133611410565b60006111ea8383610f63565b611268576000838152602081815260408083206001600160a01b03861684529091529020805460ff191660011790556112203390565b6001600160a01b0316826001600160a01b0316847f2f8788117e7eff1d82e926ec794901d17c78024a50270940304540a733656f0d60405160405180910390a4506001610686565b506000610686565b60015460ff16156112945760405163d93c066560e01b815260040160405180910390fd5b565b60028054036112b857604051633ee5aeb560e01b815260040160405180910390fd5b60028055565b604080516001600160a01b0385811660248301528416604482015260648082018490528251808303909101815260849091019091526020810180516001600160e01b03166323b872dd60e01b1790526106b190859061144e565b60006113248383610f63565b15611268576000838152602081815260408083206001600160a01b0386168085529252808320805460ff1916905551339286917ff6391f5c32d9c69d2a47ea670b442974b53935d1edc7fd64eb21e047a839171b9190a4506001610686565b61138b6114bf565b6001805460ff191690557f5db9ee0a495bf2e6ff9c91a7834c1ba4fdd244a5e8aa4e537bd38aeae4b073aa335b6040516001600160a01b03909116815260200160405180910390a1565b6113dd611270565b6001805460ff1916811790557f62e78cea01bee320cd4e420270b5ea74000d11b0c9f74754ebdbfc544b05a258336113b8565b61141a8282610f63565b610eb05760405163e2517d3f60e01b81526001600160a01b0382166004820152602481018390526044015b60405180910390fd5b600080602060008451602086016000885af180611471576040513d6000823e3d81fd5b50506000513d91508115611489578060011415611496565b6001600160a01b0384163b155b156106b157604051635274afe760e01b81526001600160a01b0385166004820152602401611445565b60015460ff1661129457604051638dfc202b60e01b815260040160405180910390fd5b6000602082840312156114f457600080fd5b5035919050565b60006020828403121561150d57600080fd5b81356001600160e01b03198116811461152557600080fd5b9392505050565b80356001600160a01b038116811461154357600080fd5b919050565b6000806040838503121561155b57600080fd5b8235915061156b6020840161152c565b90509250929050565b60008060006060848603121561158957600080fd5b833592506115996020850161152c565b9150604084013590509250925092565b6000602082840312156115bb57600080fd5b6115258261152c565b6000602082840312156115d657600080fd5b813561ffff8116811461152557600080fd5b6000806000604084860312156115fd57600080fd5b83359250602084013567ffffffffffffffff8082111561161c57600080fd5b818601915086601f83011261163057600080fd5b81358181111561163f57600080fd5b87602082850101111561165157600080fd5b6020830194508093505050509250925092565b6000806040838503121561167757600080fd5b50508035926020909101359150565b634e487b7160e01b600052601160045260246000fd5b808202811582820484141761068657610686611686565b6000826116d057634e487b7160e01b600052601260045260246000fd5b500490565b8181038181111561068657610686611686565b60208152816020820152818360408301376000818301604090810191909152601f909201601f19160101919050565b808201808211156106865761068661168656fea49807205ce4d355092ef5a8a18f56e8913cf4a201fbe287825b095693c217753c4a2d89ed8b4cf4347fec87df1c38410f8fc538bf9fd64c10f2717bc0feff36a26469706673582212205307eddb5397335617598910c7519d9dcf831af1a311b4451d319270859ae78264736f6c63430008140033",
  "linkReferences": {},
  "deployedLinkReferences": {}
}