{"contracts/USDCPaymentHub.sol":{"USDCPaymentHub":{"abi":[{"type":"constructor","inputs":[{"name":"_usdc","type":"address","internalType":"address"},{"name":"_platformFeeAccount","type":"address","internalType":"address"},{"name":"_platformFeeBps","type":"uint16","internalType":"uint16"}],"stateMutability":"nonpayable"},{"type":"function","name":"ADMIN_ROLE","inputs":[],"outputs":[{"name":"","type":"bytes32","internalType":"bytes32"}],"stateMutability":"view"},{"type":"function","name":"DEFAULT_ADMIN_ROLE","inputs":[],"outputs":[{"name":"","type":"bytes32","internalType":"bytes32"}],"stateMutability":"view"},{"type":"function","name":"MERCHANT_ROLE","inputs":[],"outputs":[{"name":"","type":"bytes32","internalType":"bytes32"}],"stateMutability":"view"},{"type":"function","name":"adminRefund","inputs":[{"name":"paymentId","type":"bytes32","internalType":"bytes32"},{"name":"amount","type":"uint256","internalType":"uint256"}],"outputs":[],"stateMutability":"nonpayable"},{"type":"function","name":"checkout","inputs":[{"name":"paymentId","type":"bytes32","internalType":"bytes32"},{"name":"merchant","type":"address","internalType":"address"},{"name":"grossAmount","type":"uint256","internalType":"uint256"}],"outputs":[],"stateMutability":"nonpayable"},{"type":"function","name":"computeFeeAndNet","inputs":[{"name":"grossAmount","type":"uint256","internalType":"uint256"}],"outputs":[{"name":"fee","type":"uint256","internalType":"uint256"},{"name":"net","type":"uint256","internalType":"uint256"}],"stateMutability":"view"},{"type":"function","name":"getPaymentInfo","inputs":[{"name":"paymentId","type":"bytes32","internalType":"bytes32"}],"outputs":[{"name":"consumer","type":"address","internalType":"address"},{"name":"merchant","type":"address","internalType":"address"},{"name":"grossAmount","type":"uint256","internalType":"uint256"},{"name":"merchantAmount","type":"uint256","internalType":"uint256"},{"name":"refundedAmount","type":"uint256","internalType":"uint256"},{"name":"timestamp","type":"uint32","internalType":"uint32"},{"name":"processed","type":"bool","internalType":"bool"},{"name":"refunded","type":"bool","internalType":"bool"}],"stateMutability":"view"},{"type":"function","name":"getRoleAdmin","inputs":[{"name":"role","type":"bytes32","internalType":"bytes32"}],"outputs":[{"name":"","type":"bytes32","internalType":"bytes32"}],"stateMutability":"view"},{"type":"function","name":"grantRole","inputs":[{"name":"role","type":"bytes32","internalType":"bytes32"},{"name":"account","type":"address","internalType":"address"}],"outputs":[],"stateMutability":"nonpayable"},{"type":"function","name":"hasRole","inputs":[{"name":"role","type":"bytes32","internalType":"bytes32"},{"name":"account","type":"address","internalType":"address"}],"outputs":[{"name":"","type":"bool","internalType":"bool"}],"stateMutability":"view"},{"type":"function","name":"isProcessed","inputs":[{"name":"paymentId","type":"bytes32","internalType":"bytes32"}],"outputs":[{"name":"","type":"bool","internalType":"bool"}],"stateMutability":"view"},{"type":"function","name":"isRefundRequested","inputs":[{"name":"paymentId","type":"bytes32","internalType":"bytes32"}],"outputs":[{"name":"","type":"bool","internalType":"bool"}],"stateMutability":"view"},{"type":"function","name":"isRefunded","inputs":[{"name":"paymentId","type":"bytes32","internalType":"bytes32"}],"outputs":[{"name":"","type":"bool","internalType":"bool"}],"stateMutability":"view"},{"type":"function","name":"merchantRefund","inputs":[{"name":"paymentId","type":"bytes32","internalType":"bytes32"},{"name":"amount","type":"uint256","internalType":"uint256"}],"outputs":[],"stateMutability":"nonpayable"},{"type":"function","name":"pause","inputs":[],"outputs":[],"stateMutability":"nonpayable"},{"type":"function","name":"paused","inputs":[],"outputs":[{"name":"","type":"bool","internalType":"bool"}],"stateMutability":"view"},{"type":"function","name":"payments","inputs":[{"name":"","type":"bytes32","internalType":"bytes32"}],"outputs":[{"name":"consumer","type":"address","internalType":"address"},{"name":"merchant","type":"address","internalType":"address"},{"name":"grossAmount","type":"uint128","internalType":"uint128"},{"name":"merchantAmount","type":"uint128","internalType":"uint128"},{"name":"refundedAmount","type":"uint128","internalType":"uint128"},{"name":"timestamp","type":"uint32","internalType":"uint32"},{"name":"processed","type":"bool","internalType":"bool"},{"name":"refunded","type":"bool","internalType":"bool"}],"stateMutability":"view"},{"type":"function","name":"platformFeeAccount","inputs":[],"outputs":[{"name":"","type":"address","internalType":"address"}],"stateMutability":"view"},{"type":"function","name":"platformFeeBps","inputs":[],"outputs":[{"name":"","type":"uint16","internalType":"uint16"}],"stateMutability":"view"},{"type":"function","name":"refundRequested","inputs":[{"name":"","type":"bytes32","internalType":"bytes32"}],"outputs":[{"name":"","type":"bool","internalType":"bool"}],"stateMutability":"view"},{"type":"function","name":"registerMerchant","inputs":[{"name":"merchant","type":"address","internalType":"address"}],"outputs":[],"stateMutability":"nonpayable"},{"type":"function","name":"renounceRole","inputs":[{"name":"role","type":"bytes32","internalType":"bytes32"},{"name":"callerConfirmation","type":"address","internalType":"address"}],"outputs":[],"stateMutability":"nonpayable"},{"type":"function","name":"requestRefund","inputs":[{"name":"paymentId","type":"bytes32","internalType":"bytes32"},{"name":"reason","type":"string","internalType":"string"}],"outputs":[],"stateMutability":"nonpayable"},{"type":"function","name":"revokeMerchant","inputs":[{"name":"merchant","type":"address","internalType":"address"}],"outputs":[],"stateMutability":"nonpayable"},{"type":"function","name":"revokeRole","inputs":[{"name":"role","type":"bytes32","internalType":"bytes32"},{"name":"account","type":"address","internalType":"address"}],"outputs":[],"stateMutability":"nonpayable"},{"type":"function","name":"setPlatformFee","inputs":[{"name":"newBps","type":"uint16","internalType":"uint16"}],"outputs":[],"stateMutability":"nonpayable"},{"type":"function","name":"setPlatformFeeAccount","inputs":[{"name":"newAccount","type":"address","internalType":"address"}],"outputs":[],"stateMutability":"nonpayable"},{"type":"function","name":"supportsInterface","inputs":[{"name":"interfaceId","type":"bytes4","internalType":"bytes4"}],"outputs":[{"name":"","type":"bool","internalType":"bool"}],"stateMutability":"view"},{"type":"function","name":"unpause","inputs":[],"outputs":[],"stateMutability":"nonpayable"},{"type":"function","name":"usdc","inputs":[],"outputs":[{"name":"","type":"address","internalType":"contract IERC20"}],"stateMutability":"view"},{"type":"event","name":"MerchantRegistered","inputs":[{"name":"merchant","type":"address","indexed":true,"internalType":"address"}],"anonymous":false},{"type":"event","name":"MerchantRevoked","inputs":[{"name":"merchant","type":"address","indexed":true,"internalType":"address"}],"anonymous":false},{"type":"event","name":"Paused","inputs":[{"name":"account","type":"address","indexed":false,"internalType":"address"}],"anonymous":false},{"type":"event","name":"PaymentProcessed","inputs":[{"name":"paymentId","type":"bytes32","indexed":true,"internalType":"bytes32"},{"name":"consumer","type":"address","indexed":true,"internalType":"address"},{"name":"merchant","type":"address","indexed":true,"internalType":"address"},{"name":"grossAmount","type":"uint256","indexed":false,"internalType":"uint256"},{"name":"fee","type":"uint256","indexed":false,"internalType":"uint256"},{"name":"merchantAmount","type":"uint256","indexed":false,"internalType":"uint256"}],"anonymous":false},{"type":"event","name":"PlatformFeeAccountUpdated","inputs":[{"name":"oldAccount","type":"address","indexed":true,"internalType":"address"},{"name":"newAccount","type":"address","indexed":true,"internalType":"address"}],"anonymous":false},{"type":"event","name":"PlatformFeeUpdated","inputs":[{"name":"oldBps","type":"uint16","indexed":false,"internalType":"uint16"},{"name":"newBps","type":"uint16","indexed":false,"internalType":"uint16"}],"anonymous":false},{"type":"event","name":"RefundIssued","inputs":[{"name":"paymentId","type":"bytes32","indexed":true,"internalType":"bytes32"},{"name":"initiatedBy","type":"address","indexed":true,"internalType":"address"},{"name":"consumer","type":"address","indexed":true,"internalType":"address"},{"name":"amount","type":"uint256","indexed":false,"internalType":"uint256"}],"anonymous":false},{"type":"event","name":"RefundRequested","inputs":[{"name":"paymentId","type":"bytes32","indexed":true,"internalType":"bytes32"},{"name":"consumer","type":"address","indexed":true,"internalType":"address"},{"name":"reason","type":"string","indexed":false,"internalType":"string"}],"anonymous":false},{"type":"event","name":"RoleAdminChanged","inputs":[{"name":"role","type":"bytes32","indexed":true,"internalType":"bytes32"},{"name":"previousAdminRole","type":"bytes32","indexed":true,"internalType":"bytes32"},{"name":"newAdminRole","type":"bytes32","indexed":true,"internalType":"bytes32"}],"anonymous":false},{"type":"event","name":"RoleGranted","inputs":[{"name":"role","type":"bytes32","indexed":true,"internalType":"bytes32"},{"name":"account","type":"address","indexed":true,"internalType":"address"},{"name":"sender","type":"address","indexed":true,"internalType":"address"}],"anonymous":false},{"type":"event","name":"RoleRevoked","inputs":[{"name":"role","type":"bytes32","indexed":true,"internalType":"bytes32"},{"name":"account","type":"address","indexed":true,"internalType":"address"},{"name":"sender","type":"address","indexed":true,"internalType":"address"}],"anonymous":false},{"type":"event","name":"Unpaused","inputs":[{"name":"account","type":"address","indexed":false,"internalType":"address"}],"anonymous":false},{"type":"error","name":"AccessControlBadConfirmation","inputs":[]},{"type":"error","name":"AccessControlUnauthorizedAccount","inputs":[{"name":"account","type":"address","internalType":"address"},{"name":"neededRole","type":"bytes32","internalType":"bytes32"}]},{"type":"error","name":"AlreadyRefunded","inputs":[]},{"type":"error","name":"EnforcedPause","inputs":[]},{"type":"error","name":"ExpectedPause","inputs":[]},{"type":"error","name":"FeeTooHigh","inputs":[]},{"type":"error","name":"InvalidAmount","inputs":[]},{"type":"error","name":"NotMerchant","inputs":[]},{"type":"error","name":"NotPaymentConsumer","inputs":[]},{"type":"error","name":"NotPaymentMerchant","inputs":[]},{"type":"error","name":"PaymentAlreadyProcessed","inputs":[]},{"type":"error","name":"PaymentNotProcessed","inputs":[]},{"type":"error","name":"ReentrancyGuardReentrantCall","inputs":[]},{"type":"error","name":"RefundAmountTooHigh","inputs":[]},{"type":"error","name":"RefundNotRequested","inputs":[]},{"type":"error","name":"SafeERC20FailedOperation","inputs":[{"name":"token","type":"address","internalType":"address"}]},{"type":"error","name":"ZeroAddress","inputs":[]}],"userdoc":{},"devdoc":{},"evm":{"bytecode":{"object":"60a060405234801562000010575f80fd5b506040516200320c3803806200320c833981810160405281019062000036919062000405565b60016002819055505f73ffffffffffffffffffffffffffffffffffffffff168373ffffffffffffffffffffffffffffffffffffffff161480620000a457505f73ffffffffffffffffffffffffffffffffffffffff168273ffffffffffffffffffffffffffffffffffffffff16145b15620000dc576040517fd92e233d00000000000000000000000000000000000000000000000000000000815260040160405180910390fd5b6127108161ffff1611156200011d576040517fcd4e616700000000000000000000000000000000000000000000000000000000815260040160405180910390fd5b8273ffffffffffffffffffffffffffffffffffffffff1660808173ffffffffffffffffffffffffffffffffffffffff16815250508160035f6101000a81548173ffffffffffffffffffffffffffffffffffffffff021916908373ffffffffffffffffffffffffffffffffffffffff16021790555080600360146101000a81548161ffff021916908361ffff160217905550620001c25f801b33620001ff60201b60201c565b50620001f57fa49807205ce4d355092ef5a8a18f56e8913cf4a201fbe287825b095693c2177533620001ff60201b60201c565b505050506200045e565b5f620002128383620002fa60201b60201c565b620002f05760015f808581526020019081526020015f205f015f8473ffffffffffffffffffffffffffffffffffffffff1673ffffffffffffffffffffffffffffffffffffffff1681526020019081526020015f205f6101000a81548160ff0219169083151502179055506200028c6200035d60201b60201c565b73ffffffffffffffffffffffffffffffffffffffff168273ffffffffffffffffffffffffffffffffffffffff16847f2f8788117e7eff1d82e926ec794901d17c78024a50270940304540a733656f0d60405160405180910390a460019050620002f4565b5f90505b92915050565b5f805f8481526020019081526020015f205f015f8373ffffffffffffffffffffffffffffffffffffffff1673ffffffffffffffffffffffffffffffffffffffff1681526020019081526020015f205f9054906101000a900460ff16905092915050565b5f33905090565b5f80fd5b5f73ffffffffffffffffffffffffffffffffffffffff82169050919050565b5f620003938262000368565b9050919050565b620003a58162000387565b8114620003b0575f80fd5b50565b5f81519050620003c3816200039a565b92915050565b5f61ffff82169050919050565b620003e181620003c9565b8114620003ec575f80fd5b50565b5f81519050620003ff81620003d6565b92915050565b5f805f606084860312156200041f576200041e62000364565b5b5f6200042e86828701620003b3565b93505060206200044186828701620003b3565b92505060406200045486828701620003ef565b9150509250925092565b608051612d79620004935f395f8181610b0801528181610b7e01528181610e0f015281816115540152611d0d0152612d795ff3fe608060405234801561000f575f80fd5b50600436106101d8575f3560e01c80635ccf91bc116101025780638af2c048116100a0578063b17756811161006f578063b17756811461055f578063b3d358391461058f578063d547741f146105ad578063dbd19fce146105c9576101d8565b80638af2c048146104bc57806391d14854146104da578063a217fddf1461050a578063a75e9b1914610528576101d8565b806375b238fc116100dc57806375b238fc1461045c5780637bd9060f1461047a578063819a701c146104965780638456cb59146104b2576101d8565b80635ccf91bc146103df5780636d892f9e146103fb5780636e1369111461042c576101d8565b80632f3a5f961161017a5780633f4ba83a116101495780633f4ba83a1461037f578063584ba2f1146103895780635c975abb146103a55780635cbc742c146103c3576101d8565b80632f3a5f961461030d57806336568abe14610329578063388d9e5a146103455780633e413bee14610361576101d8565b806311c16896116101b657806311c168961461027357806322dcd13e146102a3578063248a9ca3146102c15780632f2ff15d146102f1576101d8565b806301bb2fc1146101dc57806301ffc9a71461020c5780630716326d1461023c575b5f80fd5b6101f660048036038101906101f191906124b6565b6105e5565b60405161020391906124fb565b60405180910390f35b61022660048036038101906102219190612569565b61060b565b60405161023391906124fb565b60405180910390f35b610256600480360381019061025191906124b6565b610684565b60405161026a98979695949392919061261b565b60405180910390f35b61028d600480360381019061028891906124b6565b610782565b60405161029a91906124fb565b60405180910390f35b6102ab6107ac565b6040516102b891906126b3565b60405180910390f35b6102db60048036038101906102d691906124b6565b6107c0565b6040516102e891906126db565b60405180910390f35b61030b6004803603810190610306919061271e565b6107dc565b005b6103276004803603810190610322919061278f565b6107fe565b005b610343600480360381019061033e919061271e565b610c3f565b005b61035f600480360381019061035a91906127df565b610cba565b005b610369610e0d565b6040516103769190612865565b60405180910390f35b610387610e31565b005b6103a3600480360381019061039e91906127df565b610e66565b005b6103ad610f66565b6040516103ba91906124fb565b60405180910390f35b6103dd60048036038101906103d891906128a8565b610f7b565b005b6103f960048036038101906103f49190612934565b611054565b005b61041560048036038101906104109190612991565b611200565b6040516104239291906129cb565b60405180910390f35b610446600480360381019061044191906124b6565b611244565b60405161045391906124fb565b60405180910390f35b61046461126e565b60405161047191906126db565b60405180910390f35b610494600480360381019061048f91906129f2565b611292565b005b6104b060048036038101906104ab91906127df565b611756565b005b6104ba611856565b005b6104c461188b565b6040516104d19190612a30565b60405180910390f35b6104f460048036038101906104ef919061271e565b6118b0565b60405161050191906124fb565b60405180910390f35b610512611913565b60405161051f91906126db565b60405180910390f35b610542600480360381019061053d91906124b6565b611919565b604051610556989796959493929190612a49565b60405180910390f35b610579600480360381019061057491906124b6565b611a71565b60405161058691906124fb565b60405180910390f35b610597611a8e565b6040516105a491906126db565b60405180910390f35b6105c760048036038101906105c2919061271e565b611ab2565b005b6105e360048036038101906105de91906129f2565b611ad4565b005b5f60055f8381526020019081526020015f205f9054906101000a900460ff169050919050565b5f7f7965db0b000000000000000000000000000000000000000000000000000000007bffffffffffffffffffffffffffffffffffffffffffffffffffffffff1916827bffffffffffffffffffffffffffffffffffffffffffffffffffffffff1916148061067d575061067c82611f26565b5b9050919050565b6004602052805f5260405f205f91509050805f015f9054906101000a900473ffffffffffffffffffffffffffffffffffffffff1690806001015f9054906101000a900473ffffffffffffffffffffffffffffffffffffffff1690806002015f9054906101000a90046fffffffffffffffffffffffffffffffff16908060020160109054906101000a90046fffffffffffffffffffffffffffffffff1690806003015f9054906101000a90046fffffffffffffffffffffffffffffffff16908060030160109054906101000a900463ffffffff16908060030160149054906101000a900460ff16908060030160159054906101000a900460ff16905088565b5f60045f8381526020019081526020015f2060030160149054906101000a900460ff169050919050565b600360149054906101000a900461ffff1681565b5f805f8381526020019081526020015f20600101549050919050565b6107e5826107c0565b6107ee81611f8f565b6107f88383611fa3565b50505050565b61080661208c565b61080e6120cd565b5f73ffffffffffffffffffffffffffffffffffffffff168273ffffffffffffffffffffffffffffffffffffffff1603610873576040517fd92e233d00000000000000000000000000000000000000000000000000000000815260040160405180910390fd5b5f81036108ac576040517f2c5211c600000000000000000000000000000000000000000000000000000000815260040160405180910390fd5b6108d67f3c4a2d89ed8b4cf4347fec87df1c38410f8fc538bf9fd64c10f2717bc0feff36836118b0565b61090c576040517f3b6405f400000000000000000000000000000000000000000000000000000000815260040160405180910390fd5b5f60045f8581526020019081526020015f2090508060030160149054906101000a900460ff1615610969576040517f424e8d7100000000000000000000000000000000000000000000000000000000815260040160405180910390fd5b5f600360149054906101000a900461ffff1690505f6127108261ffff16856109919190612af2565b61099b9190612b60565b90505f81856109aa9190612b90565b905033845f015f6101000a81548173ffffffffffffffffffffffffffffffffffffffff021916908373ffffffffffffffffffffffffffffffffffffffff16021790555085846001015f6101000a81548173ffffffffffffffffffffffffffffffffffffffff021916908373ffffffffffffffffffffffffffffffffffffffff16021790555084846002015f6101000a8154816fffffffffffffffffffffffffffffffff02191690836fffffffffffffffffffffffffffffffff160217905550808460020160106101000a8154816fffffffffffffffffffffffffffffffff02191690836fffffffffffffffffffffffffffffffff160217905550428460030160106101000a81548163ffffffff021916908363ffffffff16021790555060018460030160146101000a81548160ff0219169083151502179055505f8460030160156101000a81548160ff021916908315150217905550610b4d3387837f000000000000000000000000000000000000000000000000000000000000000073ffffffffffffffffffffffffffffffffffffffff16612111909392919063ffffffff16565b5f821115610bc457610bc33360035f9054906101000a900473ffffffffffffffffffffffffffffffffffffffff16847f000000000000000000000000000000000000000000000000000000000000000073ffffffffffffffffffffffffffffffffffffffff16612111909392919063ffffffff16565b5b8573ffffffffffffffffffffffffffffffffffffffff163373ffffffffffffffffffffffffffffffffffffffff16887f743791ed120d099b4c527e3bcef5a2e69c738c483ede167d034fb7a031afa944888686604051610c2693929190612bc3565b60405180910390a450505050610c3a612193565b505050565b610c4761219d565b73ffffffffffffffffffffffffffffffffffffffff168173ffffffffffffffffffffffffffffffffffffffff1614610cab576040517f6697b23200000000000000000000000000000000000000000000000000000000815260040160405180910390fd5b610cb582826121a4565b505050565b7fa49807205ce4d355092ef5a8a18f56e8913cf4a201fbe287825b095693c21775610ce481611f8f565b5f73ffffffffffffffffffffffffffffffffffffffff168273ffffffffffffffffffffffffffffffffffffffff1603610d49576040517fd92e233d00000000000000000000000000000000000000000000000000000000815260040160405180910390fd5b5f60035f9054906101000a900473ffffffffffffffffffffffffffffffffffffffff1690508260035f6101000a81548173ffffffffffffffffffffffffffffffffffffffff021916908373ffffffffffffffffffffffffffffffffffffffff1602179055508273ffffffffffffffffffffffffffffffffffffffff168173ffffffffffffffffffffffffffffffffffffffff167f9d114476b46f34608a8e3da816ac186f26d4be10aacee45be45db99abb2c854060405160405180910390a3505050565b7f000000000000000000000000000000000000000000000000000000000000000081565b7fa49807205ce4d355092ef5a8a18f56e8913cf4a201fbe287825b095693c21775610e5b81611f8f565b610e6361228d565b50565b7fa49807205ce4d355092ef5a8a18f56e8913cf4a201fbe287825b095693c21775610e9081611f8f565b5f73ffffffffffffffffffffffffffffffffffffffff168273ffffffffffffffffffffffffffffffffffffffff1603610ef5576040517fd92e233d00000000000000000000000000000000000000000000000000000000815260040160405180910390fd5b610f1f7f3c4a2d89ed8b4cf4347fec87df1c38410f8fc538bf9fd64c10f2717bc0feff36836107dc565b8173ffffffffffffffffffffffffffffffffffffffff167f19550584307f4a89125eb78409c1879e09efac4adc7fdeca99ad253057c5085e60405160405180910390a25050565b5f60015f9054906101000a900460ff16905090565b7fa49807205ce4d355092ef5a8a18f56e8913cf4a201fbe287825b095693c21775610fa581611f8f565b6127108261ffff161115610fe5576040517fcd4e616700000000000000000000000000000000000000000000000000000000815260040160405180910390fd5b5f600360149054906101000a900461ffff16905082600360146101000a81548161ffff021916908361ffff1602179055507f84e4fe32bf74c4011a7e1fde79c63acdffaf92a0112cde153e7b0abee665bc6b8184604051611047929190612bf8565b60405180910390a1505050565b5f60045f8581526020019081526020015f2090508060030160149054906101000a900460ff166110b0576040517f3836a1b800000000000000000000000000000000000000000000000000000000815260040160405180910390fd5b3373ffffffffffffffffffffffffffffffffffffffff16815f015f9054906101000a900473ffffffffffffffffffffffffffffffffffffffff1673ffffffffffffffffffffffffffffffffffffffff1614611137576040517fd29306d100000000000000000000000000000000000000000000000000000000815260040160405180910390fd5b8060030160159054906101000a900460ff1615611180576040517fa85e6f1a00000000000000000000000000000000000000000000000000000000815260040160405180910390fd5b600160055f8681526020019081526020015f205f6101000a81548160ff0219169083151502179055503373ffffffffffffffffffffffffffffffffffffffff16847f11294e74729c6d67311c2bd53bcb2f3079e8095c176def066051e789f41554c985856040516111f2929190612c79565b60405180910390a350505050565b5f80612710600360149054906101000a900461ffff1661ffff16846112259190612af2565b61122f9190612b60565b9150818361123d9190612b90565b9050915091565b5f60045f8381526020019081526020015f2060030160159054906101000a900460ff169050919050565b7fa49807205ce4d355092ef5a8a18f56e8913cf4a201fbe287825b095693c2177581565b61129a6120cd565b7f3c4a2d89ed8b4cf4347fec87df1c38410f8fc538bf9fd64c10f2717bc0feff366112c481611f8f565b5f60045f8581526020019081526020015f2090508060030160149054906101000a900460ff16611320576040517f3836a1b800000000000000000000000000000000000000000000000000000000815260040160405180910390fd5b8060030160159054906101000a900460ff1615611369576040517fa85e6f1a00000000000000000000000000000000000000000000000000000000815260040160405180910390fd5b60055f8581526020019081526020015f205f9054906101000a900460ff166113bd576040517f6ff1f64a00000000000000000000000000000000000000000000000000000000815260040160405180910390fd5b806001015f9054906101000a900473ffffffffffffffffffffffffffffffffffffffff1673ffffffffffffffffffffffffffffffffffffffff163373ffffffffffffffffffffffffffffffffffffffff1614611445576040517feb2b3a1e00000000000000000000000000000000000000000000000000000000815260040160405180910390fd5b5f830361147e576040517f2c5211c600000000000000000000000000000000000000000000000000000000815260040160405180910390fd5b5f816003015f9054906101000a90046fffffffffffffffffffffffffffffffff166fffffffffffffffffffffffffffffffff168260020160109054906101000a90046fffffffffffffffffffffffffffffffff166fffffffffffffffffffffffffffffffff166114ee9190612b90565b90508084111561152a576040517f764cc82700000000000000000000000000000000000000000000000000000000815260040160405180910390fd5b61159933835f015f9054906101000a900473ffffffffffffffffffffffffffffffffffffffff16867f000000000000000000000000000000000000000000000000000000000000000073ffffffffffffffffffffffffffffffffffffffff16612111909392919063ffffffff16565b83826003015f9054906101000a90046fffffffffffffffffffffffffffffffff166fffffffffffffffffffffffffffffffff166115d69190612c9b565b826003015f6101000a8154816fffffffffffffffffffffffffffffffff02191690836fffffffffffffffffffffffffffffffff1602179055508160020160109054906101000a90046fffffffffffffffffffffffffffffffff166fffffffffffffffffffffffffffffffff16826003015f9054906101000a90046fffffffffffffffffffffffffffffffff166fffffffffffffffffffffffffffffffff16106116bf5760018260030160156101000a81548160ff0219169083151502179055505f60055f8781526020019081526020015f205f6101000a81548160ff0219169083151502179055505b815f015f9054906101000a900473ffffffffffffffffffffffffffffffffffffffff1673ffffffffffffffffffffffffffffffffffffffff163373ffffffffffffffffffffffffffffffffffffffff16867f3950574a207e67e1018824bc0637c21b2a6777df9460813d666b4198cbe2365d8760405161173f9190612cce565b60405180910390a4505050611752612193565b5050565b7fa49807205ce4d355092ef5a8a18f56e8913cf4a201fbe287825b095693c2177561178081611f8f565b5f73ffffffffffffffffffffffffffffffffffffffff168273ffffffffffffffffffffffffffffffffffffffff16036117e5576040517fd92e233d00000000000000000000000000000000000000000000000000000000815260040160405180910390fd5b61180f7f3c4a2d89ed8b4cf4347fec87df1c38410f8fc538bf9fd64c10f2717bc0feff3683611ab2565b8173ffffffffffffffffffffffffffffffffffffffff167f1bc5b06af60efc2e1bf6905dcc4fa4bb9153c3a9b61a0aa9568c573cbe01076b60405160405180910390a25050565b7fa49807205ce4d355092ef5a8a18f56e8913cf4a201fbe287825b095693c2177561188081611f8f565b6118886122ee565b50565b60035f9054906101000a900473ffffffffffffffffffffffffffffffffffffffff1681565b5f805f8481526020019081526020015f205f015f8373ffffffffffffffffffffffffffffffffffffffff1673ffffffffffffffffffffffffffffffffffffffff1681526020019081526020015f205f9054906101000a900460ff16905092915050565b5f801b81565b5f805f805f805f805f60045f8b81526020019081526020015f209050805f015f9054906101000a900473ffffffffffffffffffffffffffffffffffffffff16816001015f9054906101000a900473ffffffffffffffffffffffffffffffffffffffff16826002015f9054906101000a90046fffffffffffffffffffffffffffffffff168360020160109054906101000a90046fffffffffffffffffffffffffffffffff16846003015f9054906101000a90046fffffffffffffffffffffffffffffffff168560030160109054906101000a900463ffffffff168660030160149054906101000a900460ff168760030160159054906101000a900460ff16856fffffffffffffffffffffffffffffffff169550846fffffffffffffffffffffffffffffffff169450836fffffffffffffffffffffffffffffffff1693509850985098509850985098509850985050919395975091939597565b6005602052805f5260405f205f915054906101000a900460ff1681565b7f3c4a2d89ed8b4cf4347fec87df1c38410f8fc538bf9fd64c10f2717bc0feff3681565b611abb826107c0565b611ac481611f8f565b611ace83836121a4565b50505050565b611adc6120cd565b7fa49807205ce4d355092ef5a8a18f56e8913cf4a201fbe287825b095693c21775611b0681611f8f565b5f60045f8581526020019081526020015f2090508060030160149054906101000a900460ff16611b62576040517f3836a1b800000000000000000000000000000000000000000000000000000000815260040160405180910390fd5b8060030160159054906101000a900460ff1615611bab576040517fa85e6f1a00000000000000000000000000000000000000000000000000000000815260040160405180910390fd5b60055f8581526020019081526020015f205f9054906101000a900460ff16611bff576040517f6ff1f64a00000000000000000000000000000000000000000000000000000000815260040160405180910390fd5b5f8303611c38576040517f2c5211c600000000000000000000000000000000000000000000000000000000815260040160405180910390fd5b5f816003015f9054906101000a90046fffffffffffffffffffffffffffffffff166fffffffffffffffffffffffffffffffff16826002015f9054906101000a90046fffffffffffffffffffffffffffffffff166fffffffffffffffffffffffffffffffff16611ca79190612b90565b905080841115611ce3576040517f764cc82700000000000000000000000000000000000000000000000000000000815260040160405180910390fd5b611d5233835f015f9054906101000a900473ffffffffffffffffffffffffffffffffffffffff16867f000000000000000000000000000000000000000000000000000000000000000073ffffffffffffffffffffffffffffffffffffffff16612111909392919063ffffffff16565b83826003015f9054906101000a90046fffffffffffffffffffffffffffffffff166fffffffffffffffffffffffffffffffff16611d8f9190612c9b565b826003015f6101000a8154816fffffffffffffffffffffffffffffffff02191690836fffffffffffffffffffffffffffffffff160217905550816002015f9054906101000a90046fffffffffffffffffffffffffffffffff166fffffffffffffffffffffffffffffffff16826003015f9054906101000a90046fffffffffffffffffffffffffffffffff166fffffffffffffffffffffffffffffffff1610611e4f5760018260030160156101000a81548160ff0219169083151502179055505b8160030160159054906101000a900460ff1615611e8f575f60055f8781526020019081526020015f205f6101000a81548160ff0219169083151502179055505b815f015f9054906101000a900473ffffffffffffffffffffffffffffffffffffffff1673ffffffffffffffffffffffffffffffffffffffff163373ffffffffffffffffffffffffffffffffffffffff16867f3950574a207e67e1018824bc0637c21b2a6777df9460813d666b4198cbe2365d87604051611f0f9190612cce565b60405180910390a4505050611f22612193565b5050565b5f7f01ffc9a7000000000000000000000000000000000000000000000000000000007bffffffffffffffffffffffffffffffffffffffffffffffffffffffff1916827bffffffffffffffffffffffffffffffffffffffffffffffffffffffff1916149050919050565b611fa081611f9b61219d565b61234f565b50565b5f611fae83836118b0565b6120825760015f808581526020019081526020015f205f015f8473ffffffffffffffffffffffffffffffffffffffff1673ffffffffffffffffffffffffffffffffffffffff1681526020019081526020015f205f6101000a81548160ff02191690831515021790555061201f61219d565b73ffffffffffffffffffffffffffffffffffffffff168273ffffffffffffffffffffffffffffffffffffffff16847f2f8788117e7eff1d82e926ec794901d17c78024a50270940304540a733656f0d60405160405180910390a460019050612086565b5f90505b92915050565b612094610f66565b156120cb576040517fd93c066500000000000000000000000000000000000000000000000000000000815260040160405180910390fd5b565b6002805403612108576040517f3ee5aeb500000000000000000000000000000000000000000000000000000000815260040160405180910390fd5b60028081905550565b61218d848573ffffffffffffffffffffffffffffffffffffffff166323b872dd86868660405160240161214693929190612ce7565b604051602081830303815290604052915060e01b6020820180517bffffffffffffffffffffffffffffffffffffffffffffffffffffffff83818316178352505050506123a0565b50505050565b6001600281905550565b5f33905090565b5f6121af83836118b0565b15612283575f805f8581526020019081526020015f205f015f8473ffffffffffffffffffffffffffffffffffffffff1673ffffffffffffffffffffffffffffffffffffffff1681526020019081526020015f205f6101000a81548160ff02191690831515021790555061222061219d565b73ffffffffffffffffffffffffffffffffffffffff168273ffffffffffffffffffffffffffffffffffffffff16847ff6391f5c32d9c69d2a47ea670b442974b53935d1edc7fd64eb21e047a839171b60405160405180910390a460019050612287565b5f90505b92915050565b61229561243b565b5f60015f6101000a81548160ff0219169083151502179055507f5db9ee0a495bf2e6ff9c91a7834c1ba4fdd244a5e8aa4e537bd38aeae4b073aa6122d761219d565b6040516122e49190612a30565b60405180910390a1565b6122f661208c565b6001805f6101000a81548160ff0219169083151502179055507f62e78cea01bee320cd4e420270b5ea74000d11b0c9f74754ebdbfc544b05a25861233861219d565b6040516123459190612a30565b60405180910390a1565b61235982826118b0565b61239c5780826040517fe2517d3f000000000000000000000000000000000000000000000000000000008152600401612393929190612d1c565b60405180910390fd5b5050565b5f8060205f8451602086015f885af1806123bf576040513d5f823e3d81fd5b3d92505f519150505f82146123d85760018114156123f3565b5f8473ffffffffffffffffffffffffffffffffffffffff163b145b1561243557836040517f5274afe700000000000000000000000000000000000000000000000000000000815260040161242c9190612a30565b60405180910390fd5b50505050565b612443610f66565b612479576040517f8dfc202b00000000000000000000000000000000000000000000000000000000815260040160405180910390fd5b565b5f80fd5b5f80fd5b5f819050919050565b61249581612483565b811461249f575f80fd5b50565b5f813590506124b08161248c565b92915050565b5f602082840312156124cb576124ca61247b565b5b5f6124d8848285016124a2565b91505092915050565b5f8115159050919050565b6124f5816124e1565b82525050565b5f60208201905061250e5f8301846124ec565b92915050565b5f7fffffffff0000000000000000000000000000000000000000000000000000000082169050919050565b61254881612514565b8114612552575f80fd5b50565b5f813590506125638161253f565b92915050565b5f6020828403121561257e5761257d61247b565b5b5f61258b84828501612555565b91505092915050565b5f73ffffffffffffffffffffffffffffffffffffffff82169050919050565b5f6125bd82612594565b9050919050565b6125cd816125b3565b82525050565b5f6fffffffffffffffffffffffffffffffff82169050919050565b6125f7816125d3565b82525050565b5f63ffffffff82169050919050565b612615816125fd565b82525050565b5f6101008201905061262f5f83018b6125c4565b61263c602083018a6125c4565b61264960408301896125ee565b61265660608301886125ee565b61266360808301876125ee565b61267060a083018661260c565b61267d60c08301856124ec565b61268a60e08301846124ec565b9998505050505050505050565b5f61ffff82169050919050565b6126ad81612697565b82525050565b5f6020820190506126c65f8301846126a4565b92915050565b6126d581612483565b82525050565b5f6020820190506126ee5f8301846126cc565b92915050565b6126fd816125b3565b8114612707575f80fd5b50565b5f81359050612718816126f4565b92915050565b5f80604083850312156127345761273361247b565b5b5f612741858286016124a2565b92505060206127528582860161270a565b9150509250929050565b5f819050919050565b61276e8161275c565b8114612778575f80fd5b50565b5f8135905061278981612765565b92915050565b5f805f606084860312156127a6576127a561247b565b5b5f6127b3868287016124a2565b93505060206127c48682870161270a565b92505060406127d58682870161277b565b9150509250925092565b5f602082840312156127f4576127f361247b565b5b5f6128018482850161270a565b91505092915050565b5f819050919050565b5f61282d61282861282384612594565b61280a565b612594565b9050919050565b5f61283e82612813565b9050919050565b5f61284f82612834565b9050919050565b61285f81612845565b82525050565b5f6020820190506128785f830184612856565b92915050565b61288781612697565b8114612891575f80fd5b50565b5f813590506128a28161287e565b92915050565b5f602082840312156128bd576128bc61247b565b5b5f6128ca84828501612894565b91505092915050565b5f80fd5b5f80fd5b5f80fd5b5f8083601f8401126128f4576128f36128d3565b5b8235905067ffffffffffffffff811115612911576129106128d7565b5b60208301915083600182028301111561292d5761292c6128db565b5b9250929050565b5f805f6040848603121561294b5761294a61247b565b5b5f612958868287016124a2565b935050602084013567ffffffffffffffff8111156129795761297861247f565b5b612985868287016128df565b92509250509250925092565b5f602082840312156129a6576129a561247b565b5b5f6129b38482850161277b565b91505092915050565b6129c58161275c565b82525050565b5f6040820190506129de5f8301856129bc565b6129eb60208301846129bc565b9392505050565b5f8060408385031215612a0857612a0761247b565b5b5f612a15858286016124a2565b9250506020612a268582860161277b565b9150509250929050565b5f602082019050612a435f8301846125c4565b92915050565b5f61010082019050612a5d5f83018b6125c4565b612a6a602083018a6125c4565b612a7760408301896129bc565b612a8460608301886129bc565b612a9160808301876129bc565b612a9e60a083018661260c565b612aab60c08301856124ec565b612ab860e08301846124ec565b9998505050505050505050565b7f4e487b71000000000000000000000000000000000000000000000000000000005f52601160045260245ffd5b5f612afc8261275c565b9150612b078361275c565b9250828202612b158161275c565b91508282048414831517612b2c57612b2b612ac5565b5b5092915050565b7f4e487b71000000000000000000000000000000000000000000000000000000005f52601260045260245ffd5b5f612b6a8261275c565b9150612b758361275c565b925082612b8557612b84612b33565b5b828204905092915050565b5f612b9a8261275c565b9150612ba58361275c565b9250828203905081811115612bbd57612bbc612ac5565b5b92915050565b5f606082019050612bd65f8301866129bc565b612be360208301856129bc565b612bf060408301846129bc565b949350505050565b5f604082019050612c0b5f8301856126a4565b612c1860208301846126a4565b9392505050565b5f82825260208201905092915050565b828183375f83830152505050565b5f601f19601f8301169050919050565b5f612c588385612c1f565b9350612c65838584612c2f565b612c6e83612c3d565b840190509392505050565b5f6020820190508181035f830152612c92818486612c4d565b90509392505050565b5f612ca58261275c565b9150612cb08361275c565b9250828201905080821115612cc857612cc7612ac5565b5b92915050565b5f602082019050612ce15f8301846129bc565b92915050565b5f606082019050612cfa5f8301866125c4565b612d0760208301856125c4565b612d1460408301846129bc565b949350505050565b5f604082019050612d2f5f8301856125c4565b612d3c60208301846126cc565b939250505056fea2646970667358221220b8cbcd4470299298036068ebb8bafc7bded4e77d3e3055767a17ce206ca5bbd464736f6c63430008140033","linkReferences":{}},"methodIdentifiers":{"ADMIN_ROLE()":"75b238fc","DEFAULT_ADMIN_ROLE()":"a217fddf","MERCHANT_ROLE()":"b3d35839","adminRefund(bytes32,uint256)":"dbd19fce","checkout(bytes32,address,uint256)":"2f3a5f96","computeFeeAndNet(uint256)":"6d892f9e","getPaymentInfo(bytes32)":"a75e9b19","getRoleAdmin(bytes32)":"248a9ca3","grantRole(bytes32,address)":"2f2ff15d","hasRole(bytes32,address)":"91d14854","isProcessed(bytes32)":"11c16896","isRefundRequested(bytes32)":"01bb2fc1","isRefunded(bytes32)":"6e136911","merchantRefund(bytes32,uint256)":"7bd9060f","pause()":"8456cb59","paused()":"5c975abb","payments(bytes32)":"0716326d","platformFeeAccount()":"8af2c048","platformFeeBps()":"22dcd13e","refundRequested(bytes32)":"b1775681","registerMerchant(address)":"584ba2f1","renounceRole(bytes32,address)":"36568abe","requestRefund(bytes32,string)":"5ccf91bc","revokeMerchant(address)":"819a701c","revokeRole(bytes32,address)":"d547741f","setPlatformFee(uint16)":"5cbc742c","setPlatformFeeAccount(address)":"388d9e5a","supportsInterface(bytes4)":"01ffc9a7","unpause()":"3f4ba83a","usdc()":"3e413bee"}}}}}